{
  "_format": "hh-sol-artifact-1",
  "contractName": "Owner",
  "sourceName": "contracts/Owner.sol",
  "abi": [
    {
      "inputs": [],
      "stateMutability": "nonpayable",
      "type": "constructor"
    },
    {
      "inputs": [],
      "name": "getOwner",
      "outputs": [
        {
          "internalType": "address",
          "name": "",
          "type": "address"
        }
      ],
      "stateMutability": "view",
      "type": "function"
    },
    {
      "inputs": [],
      "name": "getPlayers",
      "outputs": [
        {
          "internalType": "address[]",
          "name": "",
          "type": "address[]"
        }
      ],
      "stateMutability": "view",
      "type": "function"
    },
    {
      "inputs": [],
      "name": "getWinner",
      "outputs": [
        {
          "internalType": "address",
          "name": "",
          "type": "address"
        }
      ],
      "stateMutability": "view",
      "type": "function"
    },
    {
      "inputs": [],
      "name": "pickWinner",
      "outputs": [],
      "stateMutability": "nonpayable",
      "type": "function"
    },
    {
      "inputs": [],
      "name": "setEntry",
      "outputs": [],
      "stateMutability": "payable",
      "type": "function"
    }
  ],
  "bytecode": "0x608060405234801561001057600080fd5b50336000806101000a81548173ffffffffffffffffffffffffffffffffffffffff021916908373ffffffffffffffffffffffffffffffffffffffff160217905550610a2d806100606000396000f3fe60806040526004361061004a5760003560e01c80635d495aea1461004f578063893d20e8146100665780638b5b9ccc146100915780638e7ea5b2146100bc578063e537a2c8146100e7575b600080fd5b34801561005b57600080fd5b506100646100f1565b005b34801561007257600080fd5b5061007b61033e565b60405161008891906107ef565b60405180910390f35b34801561009d57600080fd5b506100a6610367565b6040516100b3919061080a565b60405180910390f35b3480156100c857600080fd5b506100d16103f5565b6040516100de91906107ef565b60405180910390f35b6100ef610478565b005b60008054906101000a900473ffffffffffffffffffffffffffffffffffffffff1673ffffffffffffffffffffffffffffffffffffffff163373ffffffffffffffffffffffffffffffffffffffff161461014957600080fd5b600060018054905061015961057f565b610163919061094e565b90506001818154811061019f577f4e487b7100000000000000000000000000000000000000000000000000000000600052603260045260246000fd5b9060005260206000200160009054906101000a900473ffffffffffffffffffffffffffffffffffffffff16600260006101000a81548173ffffffffffffffffffffffffffffffffffffffff021916908373ffffffffffffffffffffffffffffffffffffffff16021790555060018181548110610244577f4e487b7100000000000000000000000000000000000000000000000000000000600052603260045260246000fd5b9060005260206000200160009054906101000a900473ffffffffffffffffffffffffffffffffffffffff1673ffffffffffffffffffffffffffffffffffffffff166108fc479081150290604051600060405180830381858888f193505050501580156102b4573d6000803e3d6000fd5b50600067ffffffffffffffff8111156102f6577f4e487b7100000000000000000000000000000000000000000000000000000000600052604160045260246000fd5b6040519080825280602002602001820160405280156103245781602001602082028036833780820191505090505b506001908051906020019061033a9291906105b5565b5050565b60008060009054906101000a900473ffffffffffffffffffffffffffffffffffffffff16905090565b606060018054806020026020016040519081016040528092919081815260200182805480156103eb57602002820191906000526020600020905b8160009054906101000a900473ffffffffffffffffffffffffffffffffffffffff1673ffffffffffffffffffffffffffffffffffffffff16815260200190600101908083116103a1575b5050505050905090565b60008060009054906101000a900473ffffffffffffffffffffffffffffffffffffffff1673ffffffffffffffffffffffffffffffffffffffff163373ffffffffffffffffffffffffffffffffffffffff161461045057600080fd5b600260009054906101000a900473ffffffffffffffffffffffffffffffffffffffff16905090565b60008054906101000a900473ffffffffffffffffffffffffffffffffffffffff1673ffffffffffffffffffffffffffffffffffffffff163373ffffffffffffffffffffffffffffffffffffffff1614156104d157600080fd5b662386f26fc10000341161051a576040517f08c379a00000000000000000000000000000000000000000000000000000000081526004016105119061082c565b60405180910390fd5b6001339080600181540180825580915050600190039060005260206000200160009091909190916101000a81548173ffffffffffffffffffffffffffffffffffffffff021916908373ffffffffffffffffffffffffffffffffffffffff160217905550565b600044426001604051602001610597939291906107b6565b6040516020818303038152906040528051906020012060001c905090565b82805482825590600052602060002090810192821561062e579160200282015b8281111561062d5782518260006101000a81548173ffffffffffffffffffffffffffffffffffffffff021916908373ffffffffffffffffffffffffffffffffffffffff160217905550916020019190600101906105d5565b5b50905061063b919061063f565b5090565b5b80821115610658576000816000905550600101610640565b5090565b6000610668838361068c565b60208301905092915050565b600061068083836106aa565b60208301905092915050565b610695816108ee565b82525050565b6106a4816108ee565b82525050565b6106b3816108ee565b82525050565b60006106c482610871565b6106ce81856108a1565b93506106d98361084c565b8060005b8381101561070a5781516106f1888261065c565b97506106fc83610887565b9250506001810190506106dd565b5085935050505092915050565b60006107228261087c565b61072c81856108b2565b93506107378361085c565b8060005b8381101561076f5761074c826109ae565b6107568882610674565b975061076183610894565b92505060018101905061073b565b5085935050505092915050565b60006107896014836108bd565b9150610794826109ce565b602082019050919050565b6107b06107ab82610920565b610944565b82525050565b60006107c2828661079f565b6020820191506107d2828561079f565b6020820191506107e28284610717565b9150819050949350505050565b6000602082019050610804600083018461069b565b92915050565b6000602082019050818103600083015261082481846106b9565b905092915050565b600060208201905081810360008301526108458161077c565b9050919050565b6000819050602082019050919050565b60008190508160005260206000209050919050565b600081519050919050565b600081549050919050565b6000602082019050919050565b6000600182019050919050565b600082825260208201905092915050565b600081905092915050565b600082825260208201905092915050565b600073ffffffffffffffffffffffffffffffffffffffff82169050919050565b60006108f982610900565b9050919050565b600073ffffffffffffffffffffffffffffffffffffffff82169050919050565b6000819050919050565b600061093d610938836109c1565b6108ce565b9050919050565b6000819050919050565b600061095982610920565b915061096483610920565b9250826109745761097361097f565b5b828206905092915050565b7f4e487b7100000000000000000000000000000000000000000000000000000000600052601260045260246000fd5b60006109ba825461092a565b9050919050565b60008160001c9050919050565b7f4576656e2076616c75652072657175697265642e00000000000000000000000060008201525056fea264697066735822122094cd5dd0ab2db47583633f1e9530dc435a0a2d4c10eba2653167ab44c0aa861b64736f6c63430008040033",
  "linkReferences": {},
  "deployedLinkReferences": {}
}